{
  "_format": "hh-sol-artifact-1",
  "contractName": "QuantumResistantTest",
  "sourceName": "contracts/test/QuantumResistantTest.sol",
  "abi": [
    {
      "inputs": [],
      "stateMutability": "nonpayable",
      "type": "constructor"
    },
    {
      "inputs": [],
      "name": "testEncryptionWorkflow",
      "outputs": [
        {
          "internalType": "bool",
          "name": "",
          "type": "bool"
        }
      ],
      "stateMutability": "view",
      "type": "function"
    },
    {
      "inputs": [
        {
          "internalType": "uint256",
          "name": "seed",
          "type": "uint256"
        }
      ],
      "name": "testKeyGeneration",
      "outputs": [
        {
          "internalType": "bool",
          "name": "",
          "type": "bool"
        }
      ],
      "stateMutability": "view",
      "type": "function"
    }
  ],
  "bytecode": "0x608060405234801561001057600080fd5b5060405161001d9061005f565b604051809103906000f080158015610039573d6000803e3d6000fd5b50600080546001600160a01b0319166001600160a01b039290921691909117905561006c565b6109cf806105a283390190565b6105278061007b6000396000f3fe608060405234801561001057600080fd5b50600436106100365760003560e01c80637219ffc51461003b578063ed64874a14610057575b600080fd5b61004361006a565b604051901515815260200160405180910390f35b61004361006536600461028e565b6101fa565b6000805460405163cb5ea5d160e01b815261303960048201527fceb871db69754f583338155828aa4ed5d9c89918bd9227275b0a71515469254a9183916001600160a01b039091169063cb5ea5d190602401600060405180830381865afa1580156100d9573d6000803e3d6000fd5b505050506040513d6000823e601f3d908101601f1916820160405261010191908101906103e2565b600080546040516346e8ec5960e11b815292935090916001600160a01b0390911690638dd1d8b2906101399086908690600401610491565b600060405180830381865afa158015610156573d6000803e3d6000fd5b505050506040513d6000823e601f3d908101601f1916820160405261017e91908101906103e2565b60005460405163700006ef60e11b81529192506001600160a01b03169063e0000dde906101b190849086906004016104aa565b602060405180830381865afa1580156101ce573d6000803e3d6000fd5b505050506040513d601f19601f820116820180604052508101906101f291906104cf565b935050505090565b6000805460405163cb5ea5d160e01b81526004810184905282916001600160a01b03169063cb5ea5d190602401600060405180830381865afa158015610244573d6000803e3d6000fd5b505050506040513d6000823e601f3d908101601f1916820160405261026c91908101906103e2565b80515190915061010014801561028757508060200151516003145b9392505050565b6000602082840312156102a057600080fd5b5035919050565b634e487b7160e01b600052604160045260246000fd5b600082601f8301126102ce57600080fd5b8151602067ffffffffffffffff808311156102eb576102eb6102a7565b8260051b604051601f19603f83011681018181108482111715610310576103106102a7565b60405293845285810183019383810192508785111561032e57600080fd5b83870191505b8482101561034d57815183529183019190830190610334565b979650505050505050565b60006040828403121561036a57600080fd5b6040516040810167ffffffffffffffff828210818311171561038e5761038e6102a7565b8160405282935084519150808211156103a657600080fd5b6103b2868387016102bd565b835260208501519150808211156103c857600080fd5b506103d5858286016102bd565b6020830152505092915050565b6000602082840312156103f457600080fd5b815167ffffffffffffffff81111561040b57600080fd5b61041784828501610358565b949350505050565b600081518084526020808501945080840160005b8381101561044f57815187529582019590820190600101610433565b509495945050505050565b600081516040845261046f604085018261041f565b905060208301518482036020860152610488828261041f565b95945050505050565b828152604060208201526000610417604083018461045a565b6040815260006104bd604083018561045a565b8281036020840152610488818561045a565b6000602082840312156104e157600080fd5b8151801515811461028757600080fdfea2646970667358221220866b059eb7be316030c95ab02ced65afd79f216b227a9ad44357e79da626c64864736f6c63430008110033608060405234801561001057600080fd5b506109af806100206000396000f3fe608060405234801561001057600080fd5b50600436106100415760003560e01c80638dd1d8b214610046578063cb5ea5d11461006f578063e0000dde14610082575b600080fd5b6100596100543660046107c0565b6100a5565b6040516100669190610879565b60405180910390f35b61005961007d36600461088c565b610296565b6100956100903660046108a5565b6103a5565b6040519015158152602001610066565b6040805180820190915260608082526020820152815151610100146101075760405162461bcd60e51b8152602060048201526013602482015272496e76616c6964206d61747269782073697a6560681b60448201526064015b60405180910390fd5b6003826020015151146101505760405162461bcd60e51b8152602060048201526011602482015270496e76616c696420736565642073697a6560781b60448201526064016100fe565b604080516101008082526120208201909252600091602082016120008036833701905050905060005b6101008110156101bc5761018d85826104bb565b82828151811061019f5761019f6108ff565b6020908102919091010152806101b48161092b565b915050610179565b5060006101cd846000015183610506565b6040805161010080825261202082019092529192506000919060208201612000803683370190505090506000610207866020015185610506565b905060005b6101008110156102785761024982828151811061022b5761022b6108ff565b6020026020010151610d018a60001c6102449190610944565b610667565b83828151811061025b5761025b6108ff565b6020908102919091010152806102708161092b565b91505061020c565b50506040805180820190915291825260208201529150505b92915050565b604080518082018252606080825260208201528151610100808252612020820190935290916000919081602001602082028036833750506040805160038082526080820190925292935060009291506020820160608036833701905050905060005b61010081101561033b5761030c85826104bb565b83828151811061031e5761031e6108ff565b6020908102919091010152806103338161092b565b9150506102f8565b5060005b600381101561038c5761035d8561035883610100610966565b6104bb565b82828151811061036f5761036f6108ff565b6020908102919091010152806103848161092b565b91505061033f565b5060408051808201909152918252602082015292915050565b815151600090610100146103ee5760405162461bcd60e51b815260206004820152601060248201526f092dcecc2d8d2c840ea40d8cadccee8d60831b60448201526064016100fe565b610100836020015151146104375760405162461bcd60e51b815260206004820152601060248201526f092dcecc2d8d2c840ec40d8cadccee8d60831b60448201526064016100fe565b8151835160009161044791610506565b905060005b6101008110156104b0578460200151818151811061046c5761046c6108ff565b6020026020010151828281518110610486576104866108ff565b60200260200101511461049e57600092505050610290565b806104a88161092b565b91505061044c565b506001949350505050565b6000610d0183836040516020016104dc929190918252602082015260400190565b6040516020818303038152906040528051906020012060001c6104ff9190610944565b9392505050565b6060610100835114801561051c57506101008251145b6105685760405162461bcd60e51b815260206004820152601960248201527f496e76616c696420706f6c796e6f6d69616c206c656e6774680000000000000060448201526064016100fe565b604080516101008082526120208201909252600091602082016120008036833701905050905060005b61010081101561065f5760005b61010081101561064c5760006101006105b78385610966565b6105c19190610944565b905061061c8482815181106105d8576105d86108ff565b60200260200101516102448986815181106105f5576105f56108ff565b602002602001015189868151811061060f5761060f6108ff565b6020026020010151610676565b84828151811061062e5761062e6108ff565b602090810291909101015250806106448161092b565b91505061059e565b50806106578161092b565b915050610591565b509392505050565b6000610d018284089392505050565b6000610d018284099392505050565b634e487b7160e01b600052604160045260246000fd5b600082601f8301126106ac57600080fd5b8135602067ffffffffffffffff808311156106c9576106c9610685565b8260051b604051601f19603f830116810181811084821117156106ee576106ee610685565b60405293845285810183019383810192508785111561070c57600080fd5b83870191505b8482101561072b57813583529183019190830190610712565b979650505050505050565b60006040828403121561074857600080fd5b6040516040810167ffffffffffffffff828210818311171561076c5761076c610685565b81604052829350843591508082111561078457600080fd5b6107908683870161069b565b835260208501359150808211156107a657600080fd5b506107b38582860161069b565b6020830152505092915050565b600080604083850312156107d357600080fd5b82359150602083013567ffffffffffffffff8111156107f157600080fd5b6107fd85828601610736565b9150509250929050565b600081518084526020808501945080840160005b838110156108375781518752958201959082019060010161081b565b509495945050505050565b60008151604084526108576040850182610807565b9050602083015184820360208601526108708282610807565b95945050505050565b6020815260006104ff6020830184610842565b60006020828403121561089e57600080fd5b5035919050565b600080604083850312156108b857600080fd5b823567ffffffffffffffff808211156108d057600080fd5b6108dc86838701610736565b935060208501359150808211156108f257600080fd5b506107fd85828601610736565b634e487b7160e01b600052603260045260246000fd5b634e487b7160e01b600052601160045260246000fd5b60006001820161093d5761093d610915565b5060010190565b60008261096157634e487b7160e01b600052601260045260246000fd5b500690565b808201808211156102905761029061091556fea264697066735822122017a7c989e17499a5ed28f05fd0cb15cd5bb94346a64702e572544b7f3f4f389a64736f6c63430008110033",
  "linkReferences": {},
  "deployedLinkReferences": {}
}