{"contracts/QuantumResistant.sol":{"QuantumResistant":{"abi":[{"inputs":[{"internalType":"bytes32","name":"message","type":"bytes32"},{"components":[{"internalType":"uint256[]","name":"matrix","type":"uint256[]"},{"internalType":"uint256[]","name":"seed","type":"uint256[]"}],"internalType":"struct IQuantumResistant.PublicKey","name":"publicKey","type":"tuple"}],"name":"encrypt","outputs":[{"components":[{"internalType":"uint256[]","name":"u","type":"uint256[]"},{"internalType":"uint256[]","name":"v","type":"uint256[]"}],"internalType":"struct IQuantumResistant.Ciphertext","name":"","type":"tuple"}],"stateMutability":"pure","type":"function"},{"inputs":[{"internalType":"uint256","name":"seed","type":"uint256"}],"name":"generatePublicKey","outputs":[{"components":[{"internalType":"uint256[]","name":"matrix","type":"uint256[]"},{"internalType":"uint256[]","name":"seed","type":"uint256[]"}],"internalType":"struct IQuantumResistant.PublicKey","name":"","type":"tuple"}],"stateMutability":"pure","type":"function"},{"inputs":[{"components":[{"internalType":"uint256[]","name":"u","type":"uint256[]"},{"internalType":"uint256[]","name":"v","type":"uint256[]"}],"internalType":"struct IQuantumResistant.Ciphertext","name":"ciphertext","type":"tuple"},{"components":[{"internalType":"uint256[]","name":"matrix","type":"uint256[]"},{"internalType":"uint256[]","name":"seed","type":"uint256[]"}],"internalType":"struct IQuantumResistant.PublicKey","name":"publicKey","type":"tuple"}],"name":"verifyIntegrity","outputs":[{"internalType":"bool","name":"","type":"bool"}],"stateMutability":"pure","type":"function"}],"evm":{"bytecode":{"linkReferences":{},"object":"608060405234801561001057600080fd5b506109af806100206000396000f3fe608060405234801561001057600080fd5b50600436106100415760003560e01c80638dd1d8b214610046578063cb5ea5d11461006f578063e0000dde14610082575b600080fd5b6100596100543660046107c0565b6100a5565b6040516100669190610879565b60405180910390f35b61005961007d36600461088c565b610296565b6100956100903660046108a5565b6103a5565b6040519015158152602001610066565b6040805180820190915260608082526020820152815151610100146101075760405162461bcd60e51b8152602060048201526013602482015272496e76616c6964206d61747269782073697a6560681b60448201526064015b60405180910390fd5b6003826020015151146101505760405162461bcd60e51b8152602060048201526011602482015270496e76616c696420736565642073697a6560781b60448201526064016100fe565b604080516101008082526120208201909252600091602082016120008036833701905050905060005b6101008110156101bc5761018d85826104bb565b82828151811061019f5761019f6108ff565b6020908102919091010152806101b48161092b565b915050610179565b5060006101cd846000015183610506565b6040805161010080825261202082019092529192506000919060208201612000803683370190505090506000610207866020015185610506565b905060005b6101008110156102785761024982828151811061022b5761022b6108ff565b6020026020010151610d018a60001c6102449190610944565b610667565b83828151811061025b5761025b6108ff565b6020908102919091010152806102708161092b565b91505061020c565b50506040805180820190915291825260208201529150505b92915050565b604080518082018252606080825260208201528151610100808252612020820190935290916000919081602001602082028036833750506040805160038082526080820190925292935060009291506020820160608036833701905050905060005b61010081101561033b5761030c85826104bb565b83828151811061031e5761031e6108ff565b6020908102919091010152806103338161092b565b9150506102f8565b5060005b600381101561038c5761035d8561035883610100610966565b6104bb565b82828151811061036f5761036f6108ff565b6020908102919091010152806103848161092b565b91505061033f565b5060408051808201909152918252602082015292915050565b815151600090610100146103ee5760405162461bcd60e51b815260206004820152601060248201526f092dcecc2d8d2c840ea40d8cadccee8d60831b60448201526064016100fe565b610100836020015151146104375760405162461bcd60e51b815260206004820152601060248201526f092dcecc2d8d2c840ec40d8cadccee8d60831b60448201526064016100fe565b8151835160009161044791610506565b905060005b6101008110156104b0578460200151818151811061046c5761046c6108ff565b6020026020010151828281518110610486576104866108ff565b60200260200101511461049e57600092505050610290565b806104a88161092b565b91505061044c565b506001949350505050565b6000610d0183836040516020016104dc929190918252602082015260400190565b6040516020818303038152906040528051906020012060001c6104ff9190610944565b9392505050565b6060610100835114801561051c57506101008251145b6105685760405162461bcd60e51b815260206004820152601960248201527f496e76616c696420706f6c796e6f6d69616c206c656e6774680000000000000060448201526064016100fe565b604080516101008082526120208201909252600091602082016120008036833701905050905060005b61010081101561065f5760005b61010081101561064c5760006101006105b78385610966565b6105c19190610944565b905061061c8482815181106105d8576105d86108ff565b60200260200101516102448986815181106105f5576105f56108ff565b602002602001015189868151811061060f5761060f6108ff565b6020026020010151610676565b84828151811061062e5761062e6108ff565b602090810291909101015250806106448161092b565b91505061059e565b50806106578161092b565b915050610591565b509392505050565b6000610d018284089392505050565b6000610d018284099392505050565b634e487b7160e01b600052604160045260246000fd5b600082601f8301126106ac57600080fd5b8135602067ffffffffffffffff808311156106c9576106c9610685565b8260051b604051601f19603f830116810181811084821117156106ee576106ee610685565b60405293845285810183019383810192508785111561070c57600080fd5b83870191505b8482101561072b57813583529183019190830190610712565b979650505050505050565b60006040828403121561074857600080fd5b6040516040810167ffffffffffffffff828210818311171561076c5761076c610685565b81604052829350843591508082111561078457600080fd5b6107908683870161069b565b835260208501359150808211156107a657600080fd5b506107b38582860161069b565b6020830152505092915050565b600080604083850312156107d357600080fd5b82359150602083013567ffffffffffffffff8111156107f157600080fd5b6107fd85828601610736565b9150509250929050565b600081518084526020808501945080840160005b838110156108375781518752958201959082019060010161081b565b509495945050505050565b60008151604084526108576040850182610807565b9050602083015184820360208601526108708282610807565b95945050505050565b6020815260006104ff6020830184610842565b60006020828403121561089e57600080fd5b5035919050565b600080604083850312156108b857600080fd5b823567ffffffffffffffff808211156108d057600080fd5b6108dc86838701610736565b935060208501359150808211156108f257600080fd5b506107fd85828601610736565b634e487b7160e01b600052603260045260246000fd5b634e487b7160e01b600052601160045260246000fd5b60006001820161093d5761093d610915565b5060010190565b60008261096157634e487b7160e01b600052601260045260246000fd5b500690565b808201808211156102905761029061091556fea264697066735822122017a7c989e17499a5ed28f05fd0cb15cd5bb94346a64702e572544b7f3f4f389a64736f6c63430008110033","opcodes":"PUSH1 0x80 PUSH1 0x40 MSTORE CALLVALUE DUP1 ISZERO PUSH2 0x10 JUMPI PUSH1 0x0 DUP1 REVERT JUMPDEST POP PUSH2 0x9AF DUP1 PUSH2 0x20 PUSH1 0x0 CODECOPY PUSH1 0x0 RETURN INVALID PUSH1 0x80 PUSH1 0x40 MSTORE CALLVALUE DUP1 ISZERO PUSH2 0x10 JUMPI PUSH1 0x0 DUP1 REVERT JUMPDEST POP PUSH1 0x4 CALLDATASIZE LT PUSH2 0x41 JUMPI PUSH1 0x0 CALLDATALOAD PUSH1 0xE0 SHR DUP1 PUSH4 0x8DD1D8B2 EQ PUSH2 0x46 JUMPI DUP1 PUSH4 0xCB5EA5D1 EQ PUSH2 0x6F JUMPI DUP1 PUSH4 0xE0000DDE EQ PUSH2 0x82 JUMPI JUMPDEST PUSH1 0x0 DUP1 REVERT JUMPDEST PUSH2 0x59 PUSH2 0x54 CALLDATASIZE PUSH1 0x4 PUSH2 0x7C0 JUMP JUMPDEST PUSH2 0xA5 JUMP JUMPDEST PUSH1 0x40 MLOAD PUSH2 0x66 SWAP2 SWAP1 PUSH2 0x879 JUMP JUMPDEST PUSH1 0x40 MLOAD DUP1 SWAP2 SUB SWAP1 RETURN JUMPDEST PUSH2 0x59 PUSH2 0x7D CALLDATASIZE PUSH1 0x4 PUSH2 0x88C JUMP JUMPDEST PUSH2 0x296 JUMP JUMPDEST PUSH2 0x95 PUSH2 0x90 CALLDATASIZE PUSH1 0x4 PUSH2 0x8A5 JUMP JUMPDEST PUSH2 0x3A5 JUMP JUMPDEST PUSH1 0x40 MLOAD SWAP1 ISZERO ISZERO DUP2 MSTORE PUSH1 0x20 ADD PUSH2 0x66 JUMP JUMPDEST PUSH1 0x40 DUP1 MLOAD DUP1 DUP3 ADD SWAP1 SWAP2 MSTORE PUSH1 0x60 DUP1 DUP3 MSTORE PUSH1 0x20 DUP3 ADD MSTORE DUP2 MLOAD MLOAD PUSH2 0x100 EQ PUSH2 0x107 JUMPI PUSH1 0x40 MLOAD PUSH3 0x461BCD PUSH1 0xE5 SHL DUP2 MSTORE PUSH1 0x20 PUSH1 0x4 DUP3 ADD MSTORE PUSH1 0x13 PUSH1 0x24 DUP3 ADD MSTORE PUSH19 0x496E76616C6964206D61747269782073697A65 PUSH1 0x68 SHL PUSH1 0x44 DUP3 ADD MSTORE PUSH1 0x64 ADD JUMPDEST PUSH1 0x40 MLOAD DUP1 SWAP2 SUB SWAP1 REVERT JUMPDEST PUSH1 0x3 DUP3 PUSH1 0x20 ADD MLOAD MLOAD EQ PUSH2 0x150 JUMPI PUSH1 0x40 MLOAD PUSH3 0x461BCD PUSH1 0xE5 SHL DUP2 MSTORE PUSH1 0x20 PUSH1 0x4 DUP3 ADD MSTORE PUSH1 0x11 PUSH1 0x24 DUP3 ADD MSTORE PUSH17 0x496E76616C696420736565642073697A65 PUSH1 0x78 SHL PUSH1 0x44 DUP3 ADD MSTORE PUSH1 0x64 ADD PUSH2 0xFE JUMP JUMPDEST PUSH1 0x40 DUP1 MLOAD PUSH2 0x100 DUP1 DUP3 MSTORE PUSH2 0x2020 DUP3 ADD SWAP1 SWAP3 MSTORE PUSH1 0x0 SWAP2 PUSH1 0x20 DUP3 ADD PUSH2 0x2000 DUP1 CALLDATASIZE DUP4 CALLDATACOPY ADD SWAP1 POP POP SWAP1 POP PUSH1 0x0 JUMPDEST PUSH2 0x100 DUP2 LT ISZERO PUSH2 0x1BC JUMPI PUSH2 0x18D DUP6 DUP3 PUSH2 0x4BB JUMP JUMPDEST DUP3 DUP3 DUP2 MLOAD DUP2 LT PUSH2 0x19F JUMPI PUSH2 0x19F PUSH2 0x8FF JUMP JUMPDEST PUSH1 0x20 SWAP1 DUP2 MUL SWAP2 SWAP1 SWAP2 ADD ADD MSTORE DUP1 PUSH2 0x1B4 DUP2 PUSH2 0x92B JUMP JUMPDEST SWAP2 POP POP PUSH2 0x179 JUMP JUMPDEST POP PUSH1 0x0 PUSH2 0x1CD DUP5 PUSH1 0x0 ADD MLOAD DUP4 PUSH2 0x506 JUMP JUMPDEST PUSH1 0x40 DUP1 MLOAD PUSH2 0x100 DUP1 DUP3 MSTORE PUSH2 0x2020 DUP3 ADD SWAP1 SWAP3 MSTORE SWAP2 SWAP3 POP PUSH1 0x0 SWAP2 SWAP1 PUSH1 0x20 DUP3 ADD PUSH2 0x2000 DUP1 CALLDATASIZE DUP4 CALLDATACOPY ADD SWAP1 POP POP SWAP1 POP PUSH1 0x0 PUSH2 0x207 DUP7 PUSH1 0x20 ADD MLOAD DUP6 PUSH2 0x506 JUMP JUMPDEST SWAP1 POP PUSH1 0x0 JUMPDEST PUSH2 0x100 DUP2 LT ISZERO PUSH2 0x278 JUMPI PUSH2 0x249 DUP3 DUP3 DUP2 MLOAD DUP2 LT PUSH2 0x22B JUMPI PUSH2 0x22B PUSH2 0x8FF JUMP JUMPDEST PUSH1 0x20 MUL PUSH1 0x20 ADD ADD MLOAD PUSH2 0xD01 DUP11 PUSH1 0x0 SHR PUSH2 0x244 SWAP2 SWAP1 PUSH2 0x944 JUMP JUMPDEST PUSH2 0x667 JUMP JUMPDEST DUP4 DUP3 DUP2 MLOAD DUP2 LT PUSH2 0x25B JUMPI PUSH2 0x25B PUSH2 0x8FF JUMP JUMPDEST PUSH1 0x20 SWAP1 DUP2 MUL SWAP2 SWAP1 SWAP2 ADD ADD MSTORE DUP1 PUSH2 0x270 DUP2 PUSH2 0x92B JUMP JUMPDEST SWAP2 POP POP PUSH2 0x20C JUMP JUMPDEST POP POP PUSH1 0x40 DUP1 MLOAD DUP1 DUP3 ADD SWAP1 SWAP2 MSTORE SWAP2 DUP3 MSTORE PUSH1 0x20 DUP3 ADD MSTORE SWAP2 POP POP JUMPDEST SWAP3 SWAP2 POP POP JUMP JUMPDEST PUSH1 0x40 DUP1 MLOAD DUP1 DUP3 ADD DUP3 MSTORE PUSH1 0x60 DUP1 DUP3 MSTORE PUSH1 0x20 DUP3 ADD MSTORE DUP2 MLOAD PUSH2 0x100 DUP1 DUP3 MSTORE PUSH2 0x2020 DUP3 ADD SWAP1 SWAP4 MSTORE SWAP1 SWAP2 PUSH1 0x0 SWAP2 SWAP1 DUP2 PUSH1 0x20 ADD PUSH1 0x20 DUP3 MUL DUP1 CALLDATASIZE DUP4 CALLDATACOPY POP POP PUSH1 0x40 DUP1 MLOAD PUSH1 0x3 DUP1 DUP3 MSTORE PUSH1 0x80 DUP3 ADD SWAP1 SWAP3 MSTORE SWAP3 SWAP4 POP PUSH1 0x0 SWAP3 SWAP2 POP PUSH1 0x20 DUP3 ADD PUSH1 0x60 DUP1 CALLDATASIZE DUP4 CALLDATACOPY ADD SWAP1 POP POP SWAP1 POP PUSH1 0x0 JUMPDEST PUSH2 0x100 DUP2 LT ISZERO PUSH2 0x33B JUMPI PUSH2 0x30C DUP6 DUP3 PUSH2 0x4BB JUMP JUMPDEST DUP4 DUP3 DUP2 MLOAD DUP2 LT PUSH2 0x31E JUMPI PUSH2 0x31E PUSH2 0x8FF JUMP JUMPDEST PUSH1 0x20 SWAP1 DUP2 MUL SWAP2 SWAP1 SWAP2 ADD ADD MSTORE DUP1 PUSH2 0x333 DUP2 PUSH2 0x92B JUMP JUMPDEST SWAP2 POP POP PUSH2 0x2F8 JUMP JUMPDEST POP PUSH1 0x0 JUMPDEST PUSH1 0x3 DUP2 LT ISZERO PUSH2 0x38C JUMPI PUSH2 0x35D DUP6 PUSH2 0x358 DUP4 PUSH2 0x100 PUSH2 0x966 JUMP JUMPDEST PUSH2 0x4BB JUMP JUMPDEST DUP3 DUP3 DUP2 MLOAD DUP2 LT PUSH2 0x36F JUMPI PUSH2 0x36F PUSH2 0x8FF JUMP JUMPDEST PUSH1 0x20 SWAP1 DUP2 MUL SWAP2 SWAP1 SWAP2 ADD ADD MSTORE DUP1 PUSH2 0x384 DUP2 PUSH2 0x92B JUMP JUMPDEST SWAP2 POP POP PUSH2 0x33F JUMP JUMPDEST POP PUSH1 0x40 DUP1 MLOAD DUP1 DUP3 ADD SWAP1 SWAP2 MSTORE SWAP2 DUP3 MSTORE PUSH1 0x20 DUP3 ADD MSTORE SWAP3 SWAP2 POP POP JUMP JUMPDEST DUP2 MLOAD MLOAD PUSH1 0x0 SWAP1 PUSH2 0x100 EQ PUSH2 0x3EE JUMPI PUSH1 0x40 MLOAD PUSH3 0x461BCD PUSH1 0xE5 SHL DUP2 MSTORE PUSH1 0x20 PUSH1 0x4 DUP3 ADD MSTORE PUSH1 0x10 PUSH1 0x24 DUP3 ADD MSTORE PUSH16 0x92DCECC2D8D2C840EA40D8CADCCEE8D PUSH1 0x83 SHL PUSH1 0x44 DUP3 ADD MSTORE PUSH1 0x64 ADD PUSH2 0xFE JUMP JUMPDEST PUSH2 0x100 DUP4 PUSH1 0x20 ADD MLOAD MLOAD EQ PUSH2 0x437 JUMPI PUSH1 0x40 MLOAD PUSH3 0x461BCD PUSH1 0xE5 SHL DUP2 MSTORE PUSH1 0x20 PUSH1 0x4 DUP3 ADD MSTORE PUSH1 0x10 PUSH1 0x24 DUP3 ADD MSTORE PUSH16 0x92DCECC2D8D2C840EC40D8CADCCEE8D PUSH1 0x83 SHL PUSH1 0x44 DUP3 ADD MSTORE PUSH1 0x64 ADD PUSH2 0xFE JUMP JUMPDEST DUP2 MLOAD DUP4 MLOAD PUSH1 0x0 SWAP2 PUSH2 0x447 SWAP2 PUSH2 0x506 JUMP JUMPDEST SWAP1 POP PUSH1 0x0 JUMPDEST PUSH2 0x100 DUP2 LT ISZERO PUSH2 0x4B0 JUMPI DUP5 PUSH1 0x20 ADD MLOAD DUP2 DUP2 MLOAD DUP2 LT PUSH2 0x46C JUMPI PUSH2 0x46C PUSH2 0x8FF JUMP JUMPDEST PUSH1 0x20 MUL PUSH1 0x20 ADD ADD MLOAD DUP3 DUP3 DUP2 MLOAD DUP2 LT PUSH2 0x486 JUMPI PUSH2 0x486 PUSH2 0x8FF JUMP JUMPDEST PUSH1 0x20 MUL PUSH1 0x20 ADD ADD MLOAD EQ PUSH2 0x49E JUMPI PUSH1 0x0 SWAP3 POP POP POP PUSH2 0x290 JUMP JUMPDEST DUP1 PUSH2 0x4A8 DUP2 PUSH2 0x92B JUMP JUMPDEST SWAP2 POP POP PUSH2 0x44C JUMP JUMPDEST POP PUSH1 0x1 SWAP5 SWAP4 POP POP POP POP JUMP JUMPDEST PUSH1 0x0 PUSH2 0xD01 DUP4 DUP4 PUSH1 0x40 MLOAD PUSH1 0x20 ADD PUSH2 0x4DC SWAP3 SWAP2 SWAP1 SWAP2 DUP3 MSTORE PUSH1 0x20 DUP3 ADD MSTORE PUSH1 0x40 ADD SWAP1 JUMP JUMPDEST PUSH1 0x40 MLOAD PUSH1 0x20 DUP2 DUP4 SUB SUB DUP2 MSTORE SWAP1 PUSH1 0x40 MSTORE DUP1 MLOAD SWAP1 PUSH1 0x20 ADD KECCAK256 PUSH1 0x0 SHR PUSH2 0x4FF SWAP2 SWAP1 PUSH2 0x944 JUMP JUMPDEST SWAP4 SWAP3 POP POP POP JUMP JUMPDEST PUSH1 0x60 PUSH2 0x100 DUP4 MLOAD EQ DUP1 ISZERO PUSH2 0x51C JUMPI POP PUSH2 0x100 DUP3 MLOAD EQ JUMPDEST PUSH2 0x568 JUMPI PUSH1 0x40 MLOAD PUSH3 0x461BCD PUSH1 0xE5 SHL DUP2 MSTORE PUSH1 0x20 PUSH1 0x4 DUP3 ADD MSTORE PUSH1 0x19 PUSH1 0x24 DUP3 ADD MSTORE PUSH32 0x496E76616C696420706F6C796E6F6D69616C206C656E67746800000000000000 PUSH1 0x44 DUP3 ADD MSTORE PUSH1 0x64 ADD PUSH2 0xFE JUMP JUMPDEST PUSH1 0x40 DUP1 MLOAD PUSH2 0x100 DUP1 DUP3 MSTORE PUSH2 0x2020 DUP3 ADD SWAP1 SWAP3 MSTORE PUSH1 0x0 SWAP2 PUSH1 0x20 DUP3 ADD PUSH2 0x2000 DUP1 CALLDATASIZE DUP4 CALLDATACOPY ADD SWAP1 POP POP SWAP1 POP PUSH1 0x0 JUMPDEST PUSH2 0x100 DUP2 LT ISZERO PUSH2 0x65F JUMPI PUSH1 0x0 JUMPDEST PUSH2 0x100 DUP2 LT ISZERO PUSH2 0x64C JUMPI PUSH1 0x0 PUSH2 0x100 PUSH2 0x5B7 DUP4 DUP6 PUSH2 0x966 JUMP JUMPDEST PUSH2 0x5C1 SWAP2 SWAP1 PUSH2 0x944 JUMP JUMPDEST SWAP1 POP PUSH2 0x61C DUP5 DUP3 DUP2 MLOAD DUP2 LT PUSH2 0x5D8 JUMPI PUSH2 0x5D8 PUSH2 0x8FF JUMP JUMPDEST PUSH1 0x20 MUL PUSH1 0x20 ADD ADD MLOAD PUSH2 0x244 DUP10 DUP7 DUP2 MLOAD DUP2 LT PUSH2 0x5F5 JUMPI PUSH2 0x5F5 PUSH2 0x8FF JUMP JUMPDEST PUSH1 0x20 MUL PUSH1 0x20 ADD ADD MLOAD DUP10 DUP7 DUP2 MLOAD DUP2 LT PUSH2 0x60F JUMPI PUSH2 0x60F PUSH2 0x8FF JUMP JUMPDEST PUSH1 0x20 MUL PUSH1 0x20 ADD ADD MLOAD PUSH2 0x676 JUMP JUMPDEST DUP5 DUP3 DUP2 MLOAD DUP2 LT PUSH2 0x62E JUMPI PUSH2 0x62E PUSH2 0x8FF JUMP JUMPDEST PUSH1 0x20 SWAP1 DUP2 MUL SWAP2 SWAP1 SWAP2 ADD ADD MSTORE POP DUP1 PUSH2 0x644 DUP2 PUSH2 0x92B JUMP JUMPDEST SWAP2 POP POP PUSH2 0x59E JUMP JUMPDEST POP DUP1 PUSH2 0x657 DUP2 PUSH2 0x92B JUMP JUMPDEST SWAP2 POP POP PUSH2 0x591 JUMP JUMPDEST POP SWAP4 SWAP3 POP POP POP JUMP JUMPDEST PUSH1 0x0 PUSH2 0xD01 DUP3 DUP5 ADDMOD SWAP4 SWAP3 POP POP POP JUMP JUMPDEST PUSH1 0x0 PUSH2 0xD01 DUP3 DUP5 MULMOD SWAP4 SWAP3 POP POP POP JUMP JUMPDEST PUSH4 0x4E487B71 PUSH1 0xE0 SHL PUSH1 0x0 MSTORE PUSH1 0x41 PUSH1 0x4 MSTORE PUSH1 0x24 PUSH1 0x0 REVERT JUMPDEST PUSH1 0x0 DUP3 PUSH1 0x1F DUP4 ADD SLT PUSH2 0x6AC JUMPI PUSH1 0x0 DUP1 REVERT JUMPDEST DUP2 CALLDATALOAD PUSH1 0x20 PUSH8 0xFFFFFFFFFFFFFFFF DUP1 DUP4 GT ISZERO PUSH2 0x6C9 JUMPI PUSH2 0x6C9 PUSH2 0x685 JUMP JUMPDEST DUP3 PUSH1 0x5 SHL PUSH1 0x40 MLOAD PUSH1 0x1F NOT PUSH1 0x3F DUP4 ADD AND DUP2 ADD DUP2 DUP2 LT DUP5 DUP3 GT OR ISZERO PUSH2 0x6EE JUMPI PUSH2 0x6EE PUSH2 0x685 JUMP JUMPDEST PUSH1 0x40 MSTORE SWAP4 DUP5 MSTORE DUP6 DUP2 ADD DUP4 ADD SWAP4 DUP4 DUP2 ADD SWAP3 POP DUP8 DUP6 GT ISZERO PUSH2 0x70C JUMPI PUSH1 0x0 DUP1 REVERT JUMPDEST DUP4 DUP8 ADD SWAP2 POP JUMPDEST DUP5 DUP3 LT ISZERO PUSH2 0x72B JUMPI DUP2 CALLDATALOAD DUP4 MSTORE SWAP2 DUP4 ADD SWAP2 SWAP1 DUP4 ADD SWAP1 PUSH2 0x712 JUMP JUMPDEST SWAP8 SWAP7 POP POP POP POP POP POP POP JUMP JUMPDEST PUSH1 0x0 PUSH1 0x40 DUP3 DUP5 SUB SLT ISZERO PUSH2 0x748 JUMPI PUSH1 0x0 DUP1 REVERT JUMPDEST PUSH1 0x40 MLOAD PUSH1 0x40 DUP2 ADD PUSH8 0xFFFFFFFFFFFFFFFF DUP3 DUP3 LT DUP2 DUP4 GT OR ISZERO PUSH2 0x76C JUMPI PUSH2 0x76C PUSH2 0x685 JUMP JUMPDEST DUP2 PUSH1 0x40 MSTORE DUP3 SWAP4 POP DUP5 CALLDATALOAD SWAP2 POP DUP1 DUP3 GT ISZERO PUSH2 0x784 JUMPI PUSH1 0x0 DUP1 REVERT JUMPDEST PUSH2 0x790 DUP7 DUP4 DUP8 ADD PUSH2 0x69B JUMP JUMPDEST DUP4 MSTORE PUSH1 0x20 DUP6 ADD CALLDATALOAD SWAP2 POP DUP1 DUP3 GT ISZERO PUSH2 0x7A6 JUMPI PUSH1 0x0 DUP1 REVERT JUMPDEST POP PUSH2 0x7B3 DUP6 DUP3 DUP7 ADD PUSH2 0x69B JUMP JUMPDEST PUSH1 0x20 DUP4 ADD MSTORE POP POP SWAP3 SWAP2 POP POP JUMP JUMPDEST PUSH1 0x0 DUP1 PUSH1 0x40 DUP4 DUP6 SUB SLT ISZERO PUSH2 0x7D3 JUMPI PUSH1 0x0 DUP1 REVERT JUMPDEST DUP3 CALLDATALOAD SWAP2 POP PUSH1 0x20 DUP4 ADD CALLDATALOAD PUSH8 0xFFFFFFFFFFFFFFFF DUP2 GT ISZERO PUSH2 0x7F1 JUMPI PUSH1 0x0 DUP1 REVERT JUMPDEST PUSH2 0x7FD DUP6 DUP3 DUP7 ADD PUSH2 0x736 JUMP JUMPDEST SWAP2 POP POP SWAP3 POP SWAP3 SWAP1 POP JUMP JUMPDEST PUSH1 0x0 DUP2 MLOAD DUP1 DUP5 MSTORE PUSH1 0x20 DUP1 DUP6 ADD SWAP5 POP DUP1 DUP5 ADD PUSH1 0x0 JUMPDEST DUP4 DUP2 LT ISZERO PUSH2 0x837 JUMPI DUP2 MLOAD DUP8 MSTORE SWAP6 DUP3 ADD SWAP6 SWAP1 DUP3 ADD SWAP1 PUSH1 0x1 ADD PUSH2 0x81B JUMP JUMPDEST POP SWAP5 SWAP6 SWAP5 POP POP POP POP POP JUMP JUMPDEST PUSH1 0x0 DUP2 MLOAD PUSH1 0x40 DUP5 MSTORE PUSH2 0x857 PUSH1 0x40 DUP6 ADD DUP3 PUSH2 0x807 JUMP JUMPDEST SWAP1 POP PUSH1 0x20 DUP4 ADD MLOAD DUP5 DUP3 SUB PUSH1 0x20 DUP7 ADD MSTORE PUSH2 0x870 DUP3 DUP3 PUSH2 0x807 JUMP JUMPDEST SWAP6 SWAP5 POP POP POP POP POP JUMP JUMPDEST PUSH1 0x20 DUP2 MSTORE PUSH1 0x0 PUSH2 0x4FF PUSH1 0x20 DUP4 ADD DUP5 PUSH2 0x842 JUMP JUMPDEST PUSH1 0x0 PUSH1 0x20 DUP3 DUP5 SUB SLT ISZERO PUSH2 0x89E JUMPI PUSH1 0x0 DUP1 REVERT JUMPDEST POP CALLDATALOAD SWAP2 SWAP1 POP JUMP JUMPDEST PUSH1 0x0 DUP1 PUSH1 0x40 DUP4 DUP6 SUB SLT ISZERO PUSH2 0x8B8 JUMPI PUSH1 0x0 DUP1 REVERT JUMPDEST DUP3 CALLDATALOAD PUSH8 0xFFFFFFFFFFFFFFFF DUP1 DUP3 GT ISZERO PUSH2 0x8D0 JUMPI PUSH1 0x0 DUP1 REVERT JUMPDEST PUSH2 0x8DC DUP7 DUP4 DUP8 ADD PUSH2 0x736 JUMP JUMPDEST SWAP4 POP PUSH1 0x20 DUP6 ADD CALLDATALOAD SWAP2 POP DUP1 DUP3 GT ISZERO PUSH2 0x8F2 JUMPI PUSH1 0x0 DUP1 REVERT JUMPDEST POP PUSH2 0x7FD DUP6 DUP3 DUP7 ADD PUSH2 0x736 JUMP JUMPDEST PUSH4 0x4E487B71 PUSH1 0xE0 SHL PUSH1 0x0 MSTORE PUSH1 0x32 PUSH1 0x4 MSTORE PUSH1 0x24 PUSH1 0x0 REVERT JUMPDEST PUSH4 0x4E487B71 PUSH1 0xE0 SHL PUSH1 0x0 MSTORE PUSH1 0x11 PUSH1 0x4 MSTORE PUSH1 0x24 PUSH1 0x0 REVERT JUMPDEST PUSH1 0x0 PUSH1 0x1 DUP3 ADD PUSH2 0x93D JUMPI PUSH2 0x93D PUSH2 0x915 JUMP JUMPDEST POP PUSH1 0x1 ADD SWAP1 JUMP JUMPDEST PUSH1 0x0 DUP3 PUSH2 0x961 JUMPI PUSH4 0x4E487B71 PUSH1 0xE0 SHL PUSH1 0x0 MSTORE PUSH1 0x12 PUSH1 0x4 MSTORE PUSH1 0x24 PUSH1 0x0 REVERT JUMPDEST POP MOD SWAP1 JUMP JUMPDEST DUP1 DUP3 ADD DUP1 DUP3 GT ISZERO PUSH2 0x290 JUMPI PUSH2 0x290 PUSH2 0x915 JUMP INVALID LOG2 PUSH5 0x6970667358 0x22 SLT KECCAK256 OR 0xA7 0xC9 DUP10 0xE1 PUSH21 0x99A5ED28F05FD0CB15CD5BB94346A64702E572544B PUSH32 0x3F4F389A64736F6C634300081100330000000000000000000000000000000000 "},"methodIdentifiers":{"encrypt(bytes32,(uint256[],uint256[]))":"8dd1d8b2","generatePublicKey(uint256)":"cb5ea5d1","verifyIntegrity((uint256[],uint256[]),(uint256[],uint256[]))":"e0000dde"}}}}}