{
  "_format": "hh-sol-artifact-1",
  "contractName": "QuantumResistant",
  "sourceName": "contracts/QuantumResistant.sol",
  "abi": [
    {
      "inputs": [
        {
          "internalType": "bytes32",
          "name": "message",
          "type": "bytes32"
        },
        {
          "components": [
            {
              "internalType": "uint256[]",
              "name": "matrix",
              "type": "uint256[]"
            },
            {
              "internalType": "uint256[]",
              "name": "seed",
              "type": "uint256[]"
            }
          ],
          "internalType": "struct IQuantumResistant.PublicKey",
          "name": "publicKey",
          "type": "tuple"
        }
      ],
      "name": "encrypt",
      "outputs": [
        {
          "components": [
            {
              "internalType": "uint256[]",
              "name": "u",
              "type": "uint256[]"
            },
            {
              "internalType": "uint256[]",
              "name": "v",
              "type": "uint256[]"
            }
          ],
          "internalType": "struct IQuantumResistant.Ciphertext",
          "name": "",
          "type": "tuple"
        }
      ],
      "stateMutability": "pure",
      "type": "function"
    },
    {
      "inputs": [
        {
          "internalType": "uint256",
          "name": "seed",
          "type": "uint256"
        }
      ],
      "name": "generatePublicKey",
      "outputs": [
        {
          "components": [
            {
              "internalType": "uint256[]",
              "name": "matrix",
              "type": "uint256[]"
            },
            {
              "internalType": "uint256[]",
              "name": "seed",
              "type": "uint256[]"
            }
          ],
          "internalType": "struct IQuantumResistant.PublicKey",
          "name": "",
          "type": "tuple"
        }
      ],
      "stateMutability": "pure",
      "type": "function"
    },
    {
      "inputs": [
        {
          "components": [
            {
              "internalType": "uint256[]",
              "name": "u",
              "type": "uint256[]"
            },
            {
              "internalType": "uint256[]",
              "name": "v",
              "type": "uint256[]"
            }
          ],
          "internalType": "struct IQuantumResistant.Ciphertext",
          "name": "ciphertext",
          "type": "tuple"
        },
        {
          "components": [
            {
              "internalType": "uint256[]",
              "name": "matrix",
              "type": "uint256[]"
            },
            {
              "internalType": "uint256[]",
              "name": "seed",
              "type": "uint256[]"
            }
          ],
          "internalType": "struct IQuantumResistant.PublicKey",
          "name": "publicKey",
          "type": "tuple"
        }
      ],
      "name": "verifyIntegrity",
      "outputs": [
        {
          "internalType": "bool",
          "name": "",
          "type": "bool"
        }
      ],
      "stateMutability": "pure",
      "type": "function"
    }
  ],
  "bytecode": "0x608060405234801561001057600080fd5b506109af806100206000396000f3fe608060405234801561001057600080fd5b50600436106100415760003560e01c80638dd1d8b214610046578063cb5ea5d11461006f578063e0000dde14610082575b600080fd5b6100596100543660046107c0565b6100a5565b6040516100669190610879565b60405180910390f35b61005961007d36600461088c565b610296565b6100956100903660046108a5565b6103a5565b6040519015158152602001610066565b6040805180820190915260608082526020820152815151610100146101075760405162461bcd60e51b8152602060048201526013602482015272496e76616c6964206d61747269782073697a6560681b60448201526064015b60405180910390fd5b6003826020015151146101505760405162461bcd60e51b8152602060048201526011602482015270496e76616c696420736565642073697a6560781b60448201526064016100fe565b604080516101008082526120208201909252600091602082016120008036833701905050905060005b6101008110156101bc5761018d85826104bb565b82828151811061019f5761019f6108ff565b6020908102919091010152806101b48161092b565b915050610179565b5060006101cd846000015183610506565b6040805161010080825261202082019092529192506000919060208201612000803683370190505090506000610207866020015185610506565b905060005b6101008110156102785761024982828151811061022b5761022b6108ff565b6020026020010151610d018a60001c6102449190610944565b610667565b83828151811061025b5761025b6108ff565b6020908102919091010152806102708161092b565b91505061020c565b50506040805180820190915291825260208201529150505b92915050565b604080518082018252606080825260208201528151610100808252612020820190935290916000919081602001602082028036833750506040805160038082526080820190925292935060009291506020820160608036833701905050905060005b61010081101561033b5761030c85826104bb565b83828151811061031e5761031e6108ff565b6020908102919091010152806103338161092b565b9150506102f8565b5060005b600381101561038c5761035d8561035883610100610966565b6104bb565b82828151811061036f5761036f6108ff565b6020908102919091010152806103848161092b565b91505061033f565b5060408051808201909152918252602082015292915050565b815151600090610100146103ee5760405162461bcd60e51b815260206004820152601060248201526f092dcecc2d8d2c840ea40d8cadccee8d60831b60448201526064016100fe565b610100836020015151146104375760405162461bcd60e51b815260206004820152601060248201526f092dcecc2d8d2c840ec40d8cadccee8d60831b60448201526064016100fe565b8151835160009161044791610506565b905060005b6101008110156104b0578460200151818151811061046c5761046c6108ff565b6020026020010151828281518110610486576104866108ff565b60200260200101511461049e57600092505050610290565b806104a88161092b565b91505061044c565b506001949350505050565b6000610d0183836040516020016104dc929190918252602082015260400190565b6040516020818303038152906040528051906020012060001c6104ff9190610944565b9392505050565b6060610100835114801561051c57506101008251145b6105685760405162461bcd60e51b815260206004820152601960248201527f496e76616c696420706f6c796e6f6d69616c206c656e6774680000000000000060448201526064016100fe565b604080516101008082526120208201909252600091602082016120008036833701905050905060005b61010081101561065f5760005b61010081101561064c5760006101006105b78385610966565b6105c19190610944565b905061061c8482815181106105d8576105d86108ff565b60200260200101516102448986815181106105f5576105f56108ff565b602002602001015189868151811061060f5761060f6108ff565b6020026020010151610676565b84828151811061062e5761062e6108ff565b602090810291909101015250806106448161092b565b91505061059e565b50806106578161092b565b915050610591565b509392505050565b6000610d018284089392505050565b6000610d018284099392505050565b634e487b7160e01b600052604160045260246000fd5b600082601f8301126106ac57600080fd5b8135602067ffffffffffffffff808311156106c9576106c9610685565b8260051b604051601f19603f830116810181811084821117156106ee576106ee610685565b60405293845285810183019383810192508785111561070c57600080fd5b83870191505b8482101561072b57813583529183019190830190610712565b979650505050505050565b60006040828403121561074857600080fd5b6040516040810167ffffffffffffffff828210818311171561076c5761076c610685565b81604052829350843591508082111561078457600080fd5b6107908683870161069b565b835260208501359150808211156107a657600080fd5b506107b38582860161069b565b6020830152505092915050565b600080604083850312156107d357600080fd5b82359150602083013567ffffffffffffffff8111156107f157600080fd5b6107fd85828601610736565b9150509250929050565b600081518084526020808501945080840160005b838110156108375781518752958201959082019060010161081b565b509495945050505050565b60008151604084526108576040850182610807565b9050602083015184820360208601526108708282610807565b95945050505050565b6020815260006104ff6020830184610842565b60006020828403121561089e57600080fd5b5035919050565b600080604083850312156108b857600080fd5b823567ffffffffffffffff808211156108d057600080fd5b6108dc86838701610736565b935060208501359150808211156108f257600080fd5b506107fd85828601610736565b634e487b7160e01b600052603260045260246000fd5b634e487b7160e01b600052601160045260246000fd5b60006001820161093d5761093d610915565b5060010190565b60008261096157634e487b7160e01b600052601260045260246000fd5b500690565b808201808211156102905761029061091556fea264697066735822122017a7c989e17499a5ed28f05fd0cb15cd5bb94346a64702e572544b7f3f4f389a64736f6c63430008110033",
  "linkReferences": {},
  "deployedLinkReferences": {}
}